:020000040800F2
:10000000A807002089010008FB1B00083316000820
:10001000F91B00088F020008AD1D00080000000059
:10002000000000000000000000000000491D000862
:10003000D102000800000000FD1B00084B1D000855
:10004000A3010008A3010008A3010008A301000800
:10005000A3010008A3010008A3010008A3010008F0
:10006000A3010008A3010008A3010008A3010008E0
:10007000A3010008A3010008A3010008A3010008D0
:10008000A3010008A3010008A3010008A3010008C0
:10009000A3010008A3010008A3010008A3010008B0
:1000A000A3010008A3010008A3010008A3010008A0
:1000B000A3010008A3010008A3010008A301000890
:1000C000A3010008A3010008A3010008A301000880
:1000D000A3010008A3010008A3010008A301000870
:1000E000A3010008A3010008A301000800F002F822
:1000F00000F03AF80AA090E8000C82448344AAF188
:100100000107DA4501D100F02FF8AFF2090EBAE885
:100110000F0013F0010F18BFFB1A43F0010318473B
:100120004021000060210000103A24BF78C878C147
:10013000FAD8520724BF30C830C144BF04680C60ED
:10014000704700000023002400250026103A28BF35
:1001500078C1FBD8520728BF30C148BF0B60704739
:100160001FB51FBD10B510BD00F058F81146FFF7C0
:10017000F7FF01F06BFE00F076F803B4FFF7F2FF33
:1001800003BC00F07DF8000009488047094800479B
:10019000FEE7FEE7FEE7FEE7FEE7FEE7FEE7FEE737
:1001A000FEE7FEE704480549054A064B7047000094
:1001B000AB1D0008ED000008A8010020A8070020E2
:1001C000A8030020A80300204FF0000200B513464A
:1001D00094469646203922BFA0E80C50A0E80C5067
:1001E000B1F12001BFF4F7AF090728BFA0E80C5018
:1001F00048BF0CC05DF804EB890028BF40F8042B11
:1002000008BF704748BF20F8022B11F0804F18BF7D
:1002100000F8012B7047704770477047754600F033
:100220002BF8AE4605006946534620F00700854688
:1002300018B020B5FFF7B6FFBDE820404FF000062C
:100240004FF000074FF000084FF0000B21F00701BE
:10025000AC46ACE8C009ACE8C009ACE8C009ACE801
:10026000C0098D46704710B50446AFF300802046A4
:10027000BDE81040FFF781BF0048704744010020EF
:1002800001491820ABBEFEE7260002007047FEE7DA
:1002900000220221014800F027B9000000080140B7
:1002A00001220221014800F01FB9000000080140AE
:1002B00000220421014800F017B9000000080140A5
:1002C00001220421014800F00FB90000000801409C
:1002D0007047000070B5044600F00CF90546601C3C
:1002E00002D004480078044400F004F9401BA04206
:1002F000FAD370BD1C0000202DE9F84FDFF8B8914B
:100300000024A9F1040B23460F2709F1040AABF1DD
:10031000040EC9E00125A5402A40AA427DD1674EBE
:10032000D1F804C0ACEB0608B44532D014DCBCF103
:10033000030F3AD009DCBCF1000F2AD0BCF1010F49
:100340001CD0BCF1020F31D11DE0BCF1110F17D050
:10035000BCF1120F2AD119E0B8F5881F19D006DCBC
:10036000B8F5803F15D0B8F5801F1FD111E0B8F562
:10037000001F0ED0B8F5041F18D10AE0CB6815E0B5
:10038000CB681B1D12E0CB6808330FE0CB680C3341
:100390000CE08B682BB1012B4FF0080303D04561B3
:1003A00004E0042302E0056100E00023FF2A01D8F5
:1003B000064601E000F104064FEA840501D9A5F1E3
:1003C0002005D6F8008007FA05FC28EA0C0803FA95
:1003D00005F548EA0508C6F800804D68ED0062D5CD
:1003E000374DAE6946F00106AE61AD6924F00306F3
:1003F00005F001050095334D06EB050CDCF80850BF
:10040000A607360F07FA06F825EA0805DFF8B880D0
:10041000404503D14FF0000817E044E0DFF8AC801E
:10042000404502D14FF001080FE0DFF8A4804045BD
:1004300002D14FF0020808E0DFF89880404502D171
:100440004FF0030801E04FF0040808FA06F848EA04
:100450000508CCF808804D68D9F80060ED024D46DB
:1004600001D5164300E096432E604D68DAF800602F
:10047000AD02554601D5164300E096432E604D6807
:10048000DBF80060AD035D4601D5164300E09643FE
:100490002E604D68DEF80060ED03754601D5164309
:1004A00000E096432E60641C0D682A46E5407FF408
:1004B00031AFBDE8F88F00000804014000001110C2
:1004C000001002400000014000080140000C014003
:1004D0000010014000140140C26821EA02030A40F2
:1004E00043EA0241016170470AB1016170470904A2
:1004F000FBE7000001488068704700001C000020F6
:1005000070B5040025D094F83D00002520B984F88A
:100510003C50204600F07EFA242084F83D002068FC
:10052000016821F0010101602068016841F4004187
:1005300001602068016821F40041016000F0B8FB0F
:100540004D4A6168914201D84C4900E04C498842CB
:1005500001D2012070BD4B492368B0FBF1F15E6808
:1005600026F03F060E435E606368934206D94FF45F
:10057000967359434FF47A73B1FBF3F12368491C26
:100580001E6A26F03F06314319626168914210D815
:100590004900401EB0FBF1F2521CC2F30B02042AC8
:1005A00001D2042022E0B0FBF1F0401CC0F30B00AC
:1005B0001CE0A268F2B301EBC10303EB0116431E7A
:1005C000B3FBF6F35B1C43F480431B0549D092B3A5
:1005D00001EBC10202EB0111401EB0FBF1F0401C27
:1005E000C0F30B0040F4804040F400402168CA6929
:1005F0004CF6FF739A431043C861D4E907100143D6
:100600002068026822F0C00211430160D4E90301AE
:1006100001432068826848F2FF339A4311438160A6
:10062000D4E9050108432168CA6822F0FF0210439B
:10063000C86001E00EE016E02068016841F00101A9
:1006400001602564202084F83D00256384F83E5035
:10065000002070BD01EB4106431EB3FBF6F35B1CAB
:10066000B3E70120C2E701EB4101401EB0FBF1F00E
:10067000401CC0F30B00B7E7A086010080841E0079
:1006800000093D0040420F002DE9FF4F83B00025D7
:10069000DDE910799A4693460446DDF848800095D6
:1006A000FFF728FF064694F83D0020287CD1192347
:1006B000012288492046009601F0D2F80028F5D1A1
:1006C00094F83C0001286FD0012084F83C00206899
:1006D0000168C90703D1016841F001010160206888
:1006E000016821F400610160222084F83D0040206F
:1006F00084F83E0025646762A4F82A90608D208506
:100700007548E062CDE9008653465A462046049972
:1007100000F0A8FF00287CD1208DDFF8C0912027B1
:1007200068B1012814D00228206801681ED041F465
:10073000806101602068416980690090BCE02068A8
:10074000416981690091016841F400710160B3E081
:100750002068016821F48061016072B620684169F7
:1007600081690091016841F400710AE041F400617F
:10077000016072B62068416981690091016821F4C5
:100780008061016062B697E0032865D801280CD02B
:10079000022843464FF000024946204600960BD0FF
:1007A00001F05EF8A8BB0CE091E0324641462046DD
:1007B00001F0FCF868BB72E001F052F848BB72B679
:1007C00033E02068016821F48061016072B620681E
:1007D0000069616A0870606A401C6062208D401E7A
:1007E0002085608D401E60853D4846F2A811006856
:1007F000B0FBF1F0C0EBC00000EB80000090401EA9
:10080000009007D020684069C04340070DD500988C
:10081000F5E727E044F8305F6773A573206940F07F
:100820002000206162B625731CE02068016841F455
:100830000071016020680069616A0870606A401C8C
:100840006062218D491E2185618D491E618562B6D8
:1008500021680969017026E032464146204601F0D0
:10086000A5F818B1012007B0BDE8F08F2068006935
:10087000616A0870606A401C6062208D401E81B20F
:100880002185608D401E608520684269D2435207F1
:1008900012D4032903D1016821F48061016020682A
:1008A0000069616A0870606A401C6062208D401EA9
:1008B0002085608D401E6085208D00287FF464AF08
:1008C00084F83D7084F83E5084F83C50CBE7022019
:1008D000C9E70000020010000000FFFF0400010053
:1008E000280000202DE9FF4F83B09A46DDE91197DB
:1008F00093460446DDF84080FFF7FCFD054694F87A
:100900003D0020287FD1192301224049204600952F
:1009100000F0A6FF002876D194F83C00012872D0A0
:10092000012084F83C0020680168C90703D10168F0
:1009300041F0010101602068016821F4006101605B
:10094000212084F83D00402084F83E0000262664E3
:10095000C4F82480A4F82A90608D20852C48E06299
:10096000CDE9007553465A462046049900F0F8FE3A
:1009700070B930E02A463946204601F04FF858B1A8
:10098000206C042804D12068016841F400710160E2
:10099000012007B0BDE8F08F606A21680078086127
:1009A000606A401C6062218D491E89B22185628D7A
:1009B000521E628522685369DB435B070BD469B121
:1009C00000781061606A401C6062208D401E2085A6
:1009D000608D401E6085208D0028CBD12A46394687
:1009E000204600F011FF0028CAD154F83D0B0168E1
:1009F00041F400710160202004F81E09E677667753
:100A00000020C6E7FFE70220C3E700000200100055
:100A10000000FFFF10B586B0002100910191029106
:100A2000039100680F4988421AD10F4CA06940F029
:100A30000800A061A069694600F008000490C02089
:100A4000009012200190032003900848FFF754FC07
:100A5000E06940F40010E061E06900F400100490E7
:100A600006B010BD0054004000100240000C0140D0
:100A70000248816802781144816070471C000020A0
:100A8000074810B5016841F010010160032000F033
:100A900067F80F2000F006F800F024F8002010BDE1
:100AA0000020024070B50D4D04464FF47A7128784D
:100AB000B1FBF0F00A490968B1FBF0F000F0A5FDC8
:100AC00048B9102C07D200222146501E00F028F809
:100AD00000206C6070BD012070BD00001C00002073
:100AE000280000200C4808B5816941F001018161AE
:100AF000816901F001010091C16941F08051C1613A
:100B0000C06900F0805000900448416821F0E06125
:100B100041F00071416008BD00100240000001403A
:100B2000F0B40E4B1B680C46C3F30223C3F1070558
:100B3000042D00D90425191D072901D2002300E046
:100B4000DB1E012606FA05F1491E214099409E4010
:100B5000761E16403143F0BC01F029B90CED00E0DF
:100B6000064900F0070208684FF6FF03184040EA04
:100B70000220034A10430860704700000CED00E0BB
:100B80000000FA052DE9F0470F46050061D0434EFD
:100B9000306800F00700B84209D2306820F0070042
:100BA00038433060306800F00700B84251D12868FF
:100BB0003B4C810712D5400703D5606840F4E060E4
:100BC00060602878000703D5606840F4605060607A
:100BD0006068A96820F0F000084360602878C007CA
:100BE00028D06868012810D02168022810D0890711
:100BF00000292EDA616821F0030101436160FFF7EB
:100C000079FC804641F288390DE021688903EFE7DD
:100C10008901EDE7FFF76EFCA0EB0801494502D919
:100C20000320BDE8F0876068696800F00C00B0EB55
:100C3000810FEFD1306800F00700B8420BD930685F
:100C400020F0070038433060306800F00700B842F9
:100C500001D00120E5E72878400705D56068E968FC
:100C600020F4E060084360602878000706D56068DB
:100C7000296920F4605040EAC100606000F028F863
:100C80006168084AC1F30311515CC8400649086015
:100C900006480068FFF706FF0020C2E70020024078
:100CA00000100240462200082800002020000020FA
:100CB0000448054900684968044AC1F30221515CAF
:100CC000C84070472800002000100240562200084B
:100CD0000E4A51680E4801F00C03042B11D0082B6A
:100CE0000FD10C48C1F38343C903C05C0AD55168D6
:100CF000084AC1F34041921E515C054A5043B0FB83
:100D0000F1F070470449484370470000001002406A
:100D100000127A003622000800093D002DE9F84F44
:100D2000040070D02078C04DC00749D06868C0F377
:100D30008100012807D06868C0F38100022809D12A
:100D40006868C00306D52868800339D56068002824
:100D5000E7D035E06068B0F5803F0BD010B1B0F55A
:100D6000A02F11D0286820F480302860286820F453
:100D7000802002E0286840F480302860606890B1EC
:100D8000FFF7B8FB06460AE0286840F48020286098
:100D9000F0E700BFFFF7AEFB801B642873D828681C
:100DA0008003F7D50CE0FFF7A5FB064605E000BF82
:100DB000FFF7A0FB801B6428F0D828688003F7D4D5
:100DC00020789A4E80074FF001094FF0000839D57E
:100DD000686810F00C0F07D06868C0F38100022823
:100DE00009D16868C00306D42868800714D5206933
:100DF000012808D110E02069B0B1C6F80090FFF7D3
:100E000079FB074605E00AE1FFF774FBC01B0228E7
:100E1000C4D828688007F7D52868616920F0F800F1
:100E200040EAC10028600DE0C6F80080FFF762FBD1
:100E3000074604E0FFF75EFBC01B022823D82868A2
:100E40008007F7D4207800072CD57948A169D9B15B
:100E5000C0F80090FFF74EFB074604E0FFF74AFB9F
:100E6000C01B02280FD8686A8007F7D571484FF475
:100E7000FA510068B0FBF1F0009000BF0098411EED
:100E80000091FAD20EE080E0C0F80080FFF732FB5C
:100E9000074604E0FFF72EFBC01B022875D8686ADE
:100EA0008007F7D42078400760D5E8690027C000A4
:100EB00008D4E86940F08050E861E869012700F053
:100EC000805000905C480168C90513D401688346CE
:100ED00041F480710160FFF70DFB824606E000BF20
:100EE000FFF708FBA0EB0A0064284ED8DBF80000EF
:100EF000C005F5D5E06801280AD008B1052813D04F
:100F0000286A20F001002862286A20F0040002E02C
:100F1000286A40F001002862E06841F2883B98B1FD
:100F2000FFF7E8FA82460BE0286A40F004002862E6
:100F3000EEE700BFFFF7DEFAA0EB0A0159455AD8E9
:100F4000286A8007F6D50CE0FFF7D4FA824605E060
:100F5000FFF7D0FAA0EB0A0159454CD8286A800760
:100F6000F6D41FB1E86920F08050E861E06988B3E9
:100F70006968C1F38101022944D00228C6F8608063
:100F800004D0FFF7B7FA044638E034E0FFF7B2FACE
:100F9000074604E0FFF7AEFAC01B02282BD82868EA
:100FA0008001F7D4206AB0F5803F05D16868A16858
:100FB00020F4003008436860D4E9080108436968F8
:100FC00021F4741108436860C6F86090FFF792FA44
:100FD000044606E025E000BFFFF78CFA001B02285C
:100FE00009D828688001F7D51BE000BFFFF782FA17
:100FF000001B022802D90320BDE8F88F2868800171
:10100000F4D40EE00128F7D06868226A00F4803139
:10101000914204D1616A00F47010884201D001202D
:10102000EAE70020E8E7000000100240000042422A
:1010300080044242280000200070004070B5040087
:1010400009D0606A002540B125616561A56294F808
:10105000510040B10CE0012070BD6068B0F5827FA6
:10106000F4D0E561F2E784F85050204600F040F8F3
:10107000022084F851002068016821F040010160DD
:10108000A088218900F4827001F404410843A189F9
:1010900001F400610843217C01F002010843217D35
:1010A00001F001010843218B01F400710843217F05
:1010B00001F03801084394F8201001F08001084342
:1010C000218D01F40051084321680860A0690421C2
:1010D00001EA1040216848602068C16921F400617C
:1010E000C1616565012084F85100002070BD0000D9
:1010F00030B585B0002400940194029403940068F4
:101100001449884223D11448816941F48051816196
:10111000816901F480510491816941F00401816188
:1011200080690E4D00F004000490A0200090022081
:1011300001900320039069462846FFF7DDF8402020
:10114000CDE90004694628460294FFF7D5F805B0BA
:1011500030BD000000300140001002400008014096
:101160002DE9F84F044690F851001D4616460F46EB
:10117000012838D160684FF00408B0F5827F01D1B2
:10118000A06830B3FFF7B6F98246002F75D0002E65
:1011900073D094F85000012825D04FF0010984F84D
:1011A000509084F851804FF00008C4F85480A76331
:1011B000A687E687C4F83080A4F83480A4F8368087
:1011C000C4F84080C4F84480A068B0F5004F0CD04B
:1011D00015E084F85180009313460A46204600F03B
:1011E0001CF9BDE8F88F0220FBE72068016821F0B8
:1011F000400101602068016821F48041016020689D
:101200000168490603D4016841F040010160E068CB
:10121000C0B134E020688168C90709D0007BA16BA8
:101220000870A06B401CA063E08F401EE08709E0BF
:10123000FFF760F9A0EB0A00A84202D3681C01D0B6
:1012400032E085B3E08F0028E4D11BE0206881689C
:10125000C90709D0C068A16B0880A06B801CA0637F
:10126000E08F401EE0870AE0FFF744F9A0EB0A0098
:10127000A84203D3681C02D016E012E09DB1E08FB3
:101280000028E3D152462946204600F0B8FC08B1B8
:101290002020606584F8519084F85080606D0028AB
:1012A0009FD001209DE7FFE784F8519084F850809B
:1012B000032096E72DE9F84F984616468A460446DD
:1012C000FFF718F9814694F8510001281ED1BAF1B0
:1012D000000F73D0002E71D094F85000012815D063
:1012E000012784F85070032084F8510000256565BB
:1012F000C4F830A0A686E686A563A587E587656461
:101300002564A068B0F5004F03D00CE00220BDE8D2
:10131000F88F2068016821F04001016020680168B1
:1013200041F48041016020680168490603D40168E6
:1013300041F040010160E068B0F5006F606803D0E3
:1013400048B3012E27D047E008B1012E1FD1206BF2
:1013500021680088C86006E020688168890709D58F
:10136000216B0988C160206B801C2063E08E401EC9
:10137000E0860CE0FFF7BEF8A0EB0901414503D37E
:10138000B8F1FF3F03D035E0B8F1000F32D0E08E66
:101390000028E1D123E0206B21680078087306E083
:1013A0002068816889070AD5216B09780173206B51
:1013B000401C2063E08E401EE0860DE02BE0FFF72E
:1013C00099F8A0EB0901414503D3B8F1FF3F03D0E1
:1013D00010E0B8F1000F0DD0E08E0028E0D14A46B1
:1013E0004146204600F039FC08B120206065A06825
:1013F00030B109E084F8517084F85050032086E73A
:101400002068C1688068009084F8517004F8505FCB
:1014100060680028F3D0012079E72DE9FF4F81B003
:101420001D46934604464FF001090E9EFFF762F8F1
:10143000074694F851006168012806D0B1F5827F13
:101440003CD1A168C9BB042838D10298002871D0CA
:10145000BBF1000FFBD0002DF9D094F8500001280B
:101460002CD04FF0010A84F850A094F851000428C1
:1014700002D0052084F851004FF00008C4F85480D1
:10148000C4F838B0E587A58702992163E586A5866B
:10149000C4F84080C4F8448020680168490603D439
:1014A000016841F040010160E068B0F5006F6068DC
:1014B00008D0F0B3012D49D081E0FFE7022005B04C
:1014C000BDE8F08F08B1012D39D1206B216800886B
:1014D000C860206B801C2063E08E401EE0862EE0FA
:1014E0002068816889070FD5E18E69B1B9F1010FD4
:1014F0000AD1216B0988C160206B801C2063E08EBB
:10150000401EE0864FF0000920688168C9070CD0B2
:10151000E18F51B1C068A16B0880A06B801CA063F3
:10152000E08F401EE0874FF00109FEF7E3FFC01B8C
:1015300001E00BE067E0B04201D3701C50D1E08EB7
:101540000028CDD1E08F0028CAD13EE0206B216871
:1015500000780873206B401C2063E08E401EE086FC
:101560002DE02068816889070FD5E18E69B1B9F156
:10157000010F0AD1216B09780173206B401C206395
:10158000E08E401EE0864FF0000920688168C907A0
:101590000CD0E18F51B1C068A16B0870A06B401CEA
:1015A000A063E08F401EE0874FF00109FEF7A2FF25
:1015B000C01BB04202D3701C01D011E086B1E08E96
:1015C0000028CED1E08F0028CBD13A4631462046C4
:1015D00000F043FB50B12020606584F8508012E099
:1015E00084F851A084F85080032068E7A06818B9F7
:1015F0002068C1688068009084F851A084F8508009
:10160000606D0028F1D0012059E710B5401EB0F1FF
:10161000807F01D3012010BD4FF0E02460610F21D5
:10162000601700F0C4FB0020A061072020610020AB
:1016300010BDFEE701684A69D24352050FD46FF42A
:1016400080624A61002140F8301F2022427381737A
:10165000026942F004020261017301207047002018
:10166000704700002DE9F84F0446006889460B9D3D
:1016700001689846174641F480610160206801685E
:1016800041F48071016000954FF0011B0022594622
:1016900020460A9B00F0E4F84FF4007A40B120683D
:1016A0000068C00501D5C4F840A00320BDE8F88F4C
:1016B000216809F0FE0008612B46284920460A9A55
:1016C00000F016F9F0BB20684169806900902A4655
:1016D00020460A9900F0A2F940B1206C04283AD1C2
:1016E0002068016841F40071016034E0FEB2B8F195
:1016F000010F09D02168380A08612A4620460A9954
:1017000000F08CF90028E8D1206806612A462046BE
:101710000A9900F083F90028DFD12068016841F4BC
:101720008071016000950022594620460A9B00F016
:1017300097F80028B3D1216809F0FF0040F00100BC
:10174000086100E007E02B46044920460A9A00F0B1
:10175000CFF80028AAD00120A8E70000020001006D
:101760002DE9F843044600680D46DDE90897016855
:101770009846164641F4807101604B4600224FF0B6
:1017800001112046009700F06BF848B1206800680E
:10179000C00502D54FF4007020640320BDE8F88333
:1017A000216805F0FE0008613B464A46154920467F
:1017B00000F09EF888B920684169806900903A4637
:1017C0004946204600F02AF948B1206C042804D18B
:1017D0002068016841F4007101600120DEE7F5B284
:1017E000B8F1010F09D02168300A08613A4649462C
:1017F000204600F013F90028E7D120680561002099
:10180000CCE700000200010070B516460D46044604
:101810001EE02046FFF70EFF08B1012070BD681CD6
:1018200016D0FEF767FE801BA84200D885B9206855
:101830004069C04340070BD5002044F8300F2021F9
:101840006173A073216941F0200121612073E4E7F5
:1018500020684069C0434007DBD4002070BD000011
:101860002DE9F047984617460D460446C1F3074652
:10187000DDF820902AE000BFB8F1FF3F26D0FEF748
:1018800039FEA0EB0901414502D8B8F1000F1DD186
:101890002068012E16D0806925EA00000004000CA3
:1018A00012D00020B84211D1002044F8300F20217E
:1018B0006173A073216941F020012161207301202F
:1018C000BDE8F0874069E7E70120EBE72068012EDB
:1018D0000AD0806925EA00000004000C06D0002030
:1018E000B842C9D00020EBE74069F3E70120F7E7F1
:1018F0002DE9F047984616460D4604464FF000097C
:101900004FF0200AC1F3074723E020684069C04335
:10191000400515D42068016841F400710160216818
:101920006FF480604861C4F8309084F83DA084F87A
:101930003E90216C41F00401216484F83C9021E048
:10194000701C06D0FEF7D6FDA0EB0800B04203D80D
:1019500016B1012F1FD021E02068012F15D080691A
:1019600025EA00000004000C18D000BF44F8309FA6
:1019700084F80DA084F80E90216941F020012161C6
:1019800084F80C900120BDE8F087406925EA00004A
:101990000004000CEAD12068406901E020688069F9
:1019A00025EA00000004000CAFD1ECE72DE9F0417E
:1019B000002590460E460446202728E04069C04393
:1019C000C0060CD454F8301B6FF01000486144F886
:1019D00010596777A577206A2062257714E0FEF713
:1019E00089FDA0EB0800B04200D886B920684069A4
:1019F000C04340060BD544F8305F6773A573206978
:101A000040F02000206125730120BDE8F0812068AE
:101A10004169C9434906D1D40020F6E770B516469E
:101A20000D4604461EE02046FFF704FE08B10120E3
:101A300070BD681C16D0FEF75DFD801BA84200D863
:101A400085B920684069C04300060BD5002044F8E2
:101A5000300F20216173A073216941F020012161C1
:101A60002073E4E720684069C0430006DBD400200F
:101A700070BD0000F0B585B0012504A8CDE90005D2
:101A80004FF47A742B467522D02102941B48FEF73E
:101A9000FBFD9DF8100068282ED1002703AE8DF8BD
:101AA0000C700096CDE9015401236B22D02113481C
:101AB000FEF718FF07208DF80C000096CDE90154C1
:101AC00001231922D0210D48FEF70CFF8DF80C7070
:101AD0000096CDE9015401231C22D0210748FEF7CE
:101AE00001FF8DF80C700096CDE9015401231B22F3
:101AF000D0210248FEF7F6FE05B0F0BD3800002008
:101B00002DE9F04385B00024264800940194029406
:101B10000394816941F020018161816901F0200114
:101B20000491816941F004018161816901F004013E
:101B30000491816941F0080181618069DFF8689052
:101B400000F008000490002206214846FEF7CCFC75
:101B5000DFF858804FF40057002239464046FEF720
:101B6000C3FC062001250226CDE90005CDE9024689
:101B700069464846FEF7C0FB00970396CDE901543D
:101B800069464046FEF7B8FB4FF460600090084895
:101B9000CDE9010569464846FEF7AEFB05B0BDE854
:101BA000F08300000010024000080140000C0140DA
:101BB000000021100F4810B50D4901604FF48271EB
:101BC000416000218160C1604FF400720161C0E991
:101BD00005122022C0E90721416281620A21C16207
:101BE000FFF72CFA002801D072B6FEE710BD000006
:101BF000003001408C000020FEE7FEE77047F8B59A
:101C0000044640684FF48273984217D1A0684FF49D
:101C10008065B0F5004F01D0A8420FD1206806685A
:101C200026F0400606606068984207D1A068A84286
:101C300004D100920B460022012103E000920B46E2
:101C400000228021204600F023F8002804D0606D97
:101C500040F0200060650320F8BDF8B515460E463B
:101C60000B46009204460122022100F011F840B90F
:101C70003346002280212046009500F009F8002814
:101C800004D0606D40F0200060650320F8BD0000C6
:101C90002DE9F8431E46914688460446089DFEF706
:101CA00029FC401B351AFEF725FC0746254800682D
:101CB000C0F3CB30684338E0701C37D0FEF71AFC15
:101CC000C01BA84203D215B1009860B32CE0206875
:101CD000416821F0E00141606068B0F5827F0BD17E
:101CE000A068B0F5004F02D0B0F5806F04D1206835
:101CF000016821F040010160A06AB0F5005F09D1E0
:101D00002068016821F4005101602068016841F4F5
:101D100000510160012084F85100002084F8500037
:101D20000320BDE8F8830025401E009020688168EC
:101D300038EA010004D000214945BDD10020F0E778
:101D40000121F9E7280000207047FEF791BE30B569
:101D50008FB028216846FEF737FA14210AA8FEF74B
:101D600033FA0225012004900095102005900024EC
:101D70004FF42010CDE9084007956846FEF7CEFFE6
:101D800008B172B6FEE70F20CDE90A054FF4806076
:101D9000CDE90C4001210AA80E94FEF7F3FE0028BD
:101DA00001D072B6FEE70FB030BD7047FEE70907FD
:101DB000090E002804DB00F1E02080F800147047D1
:101DC00000F00F0000F1E02080F8141D70470000C3
:101DD0002DE9FE431B4D1C4C00264FF47A774FF043
:101DE00006081948CDE9005801234322D0210C30C0
:101DF0000297FEF749FC2988206849BA09B20844CD
:101E000020606988606849BA09B208446060A9889E
:101E1000A06849BA09B20844761CA060642EE0DBD1
:101E20002168642091FBF0F20649C91D0A806268AE
:101E300092FBF0F24A80A26892FBF0F08880BDE845
:101E4000FE8300000D0000202C0000200EB5FEF7E0
:101E500017FEFFF77CFFFFF753FEFFF7ABFE3A4894
:101E60003849002401603949C0E901144FF4804128
:101E7000C0E9034144618461C4610462FEF740FB30
:101E800008B172B6FEE74FF496752846FEF722FABF
:101E9000FFF7F0FD2846FEF71DFAFFF799FF00F067
:101EA0005BF80A212A4800F0DFF82846FEF712FA0C
:101EB00025490220EC31264E087120390120761D7B
:101EC00008714FF47A794FF0060AF71DA1F1200846
:101ED000A6F10D052878012802D0022803D00AE0D7
:101EE0001948CC3001E01848EC3000F08BF8322073
:101EF000FEF7F0F92C70CDE9006A01233B22D021D6
:101F00001148CDF80890FEF7BFFB7088798840BA79
:101F1000411AA8F80010B188BA8849BA0A48891A43
:101F2000A8F80210AC3000F06DF8012806D141038A
:101F30000848FEF7D1FA6868401C68600120FEF787
:101F4000C9F9C7E70054004038000020A08601000E
:101F500008000020000C014010B5FEF799F90020A0
:101F600000F0D2F8172000F023F80021084600F016
:101F700099F80021012000F095F80021022000F0DE
:101F800091F80321084600F08DF80021042000F0AC
:101F900089F80021052000F085F80E21062000F0C8
:101FA00081F8002000F004F8BDE81040FEF778B991
:101FB00001B582B000208DF80000FEF779F96423A6
:101FC000012202A90748FFF775F94FF47A7301223D
:101FD00069460448FFF7C4F8FEF772F99DF800005F
:101FE0000EBD00008C00002001B5FEF761F96423EE
:101FF000012269460248FFF75DF9FEF761F908BD65
:102000008C00002038B5044600208DF80000FEF753
:102010004FF9A0208DF80000642301226946114881
:10202000FFF748F94FF47A73202221460D48FFF755
:1020300041F9FEF745F90120FEF74CF91720FFF7AB
:10204000B7FFC1060BD5000709D4E1208DF80000C9
:10205000FFF7CAFF172000F057F8012038BD002015
:1020600038BD00008C00002070B50D460446FEF718
:102070000FF91720FFF79CFF2946052000F012F802
:1020800005222146102000F023F80020FFF790FFE2
:1020900040F00201002000F005F8BDE87040FEF7B6
:1020A000FFB8000008B540F020008DF800008DF862
:1020B0000110FEF7FDF84FF47A73022269460348D7
:1020C000FFF7F8F8FEF7FCF808BD00008C000020D0
:1020D00038B540F0200014460D468DF80000FEF79C
:1020E000E7F86423012269460648FFF7E3F8A2B245
:1020F0004FF47A7329460348FFF7DCF8FEF7E0F85F
:1021000038BD00008C00002000B587B007287FD0C4
:1021100017287CD008210020FFF7C4FF3F210120B1
:10212000FFF7C0FF03210220FFF7BCFF0321084691
:10213000FFF7B8FF03210420FFF7B4FF02210520B9
:10214000FFF7B0FF0E210620FFF7ACFF00210720AC
:10215000FFF7A8FF00210820FFF7A4FF00210920B6
:10216000FFF7A0FF2FA00522D0E90010CDE9001055
:1021700069460A20FFF7ACFF2CA00522D0E9001029
:10218000CDE9021002A90B20FFF7A2FFC3210C200A
:10219000FFF788FFC4210D20FFF784FFC5210E2023
:1021A000FFF780FFC6210F20FFF77CFF1DA005224F
:1021B000D0E90010CDE9041004A91020FFF788FF32
:1021C00000211120FFF76EFF00211220FFF76AFFA8
:1021D00000211320FFF766FF00211420FFF762FFA4
:1021E00000211520FFF75EFF00211620FFF75AFFA0
:1021F00011211720FFF756FF00211C20FFF752FF87
:1022000000211D20FFF74EFF07B000BD00E002E0F7
:102210000021072001E01121172007B05DF804EB31
:10222000FFF740BFE7E7E7E7E7000000C2C2C2C22E
:10223000C2000000010202030405060708090A0B98
:102240000C0D0E0F10100000000000000000010235
:10225000030406070809000000000102030400004F
:1022600080220008000000202C0000002801000847
:10227000AC2200082C0000207C070000440100086C
:102280000000000000000000EEDDCCBBAA00000052
:10229000000000000000000000000000010000003D
:0C22A00010000000000000000024F4000A
:04000005080000ED02
:00000001FF
